{
  "_format": "hh-sol-artifact-1",
  "contractName": "Medichain",
  "sourceName": "contracts/Medichain.sol",
  "abi": [
    {
      "inputs": [
        {
          "internalType": "address",
          "name": "initialOwner",
          "type": "address"
        }
      ],
      "stateMutability": "nonpayable",
      "type": "constructor"
    },
    {
      "inputs": [
        {
          "internalType": "address",
          "name": "owner",
          "type": "address"
        }
      ],
      "name": "OwnableInvalidOwner",
      "type": "error"
    },
    {
      "inputs": [
        {
          "internalType": "address",
          "name": "account",
          "type": "address"
        }
      ],
      "name": "OwnableUnauthorizedAccount",
      "type": "error"
    },
    {
      "inputs": [],
      "name": "ReentrancyGuardReentrantCall",
      "type": "error"
    },
    {
      "anonymous": false,
      "inputs": [
        {
          "indexed": true,
          "internalType": "string",
          "name": "batchId",
          "type": "string"
        },
        {
          "indexed": true,
          "internalType": "string",
          "name": "sku",
          "type": "string"
        },
        {
          "indexed": true,
          "internalType": "address",
          "name": "owner",
          "type": "address"
        },
        {
          "indexed": false,
          "internalType": "uint256",
          "name": "quantity",
          "type": "uint256"
        }
      ],
      "name": "BatchCreated",
      "type": "event"
    },
    {
      "anonymous": false,
      "inputs": [
        {
          "indexed": true,
          "internalType": "string",
          "name": "batchId",
          "type": "string"
        },
        {
          "indexed": true,
          "internalType": "address",
          "name": "from",
          "type": "address"
        },
        {
          "indexed": true,
          "internalType": "address",
          "name": "to",
          "type": "address"
        },
        {
          "indexed": false,
          "internalType": "enum Medichain.BatchStatus",
          "name": "newStatus",
          "type": "uint8"
        }
      ],
      "name": "BatchTransferred",
      "type": "event"
    },
    {
      "anonymous": false,
      "inputs": [
        {
          "indexed": true,
          "internalType": "string",
          "name": "sku",
          "type": "string"
        },
        {
          "indexed": false,
          "internalType": "string",
          "name": "name",
          "type": "string"
        },
        {
          "indexed": false,
          "internalType": "string",
          "name": "manufacturer",
          "type": "string"
        }
      ],
      "name": "MedicineRegistered",
      "type": "event"
    },
    {
      "anonymous": false,
      "inputs": [
        {
          "indexed": true,
          "internalType": "address",
          "name": "previousOwner",
          "type": "address"
        },
        {
          "indexed": true,
          "internalType": "address",
          "name": "newOwner",
          "type": "address"
        }
      ],
      "name": "OwnershipTransferred",
      "type": "event"
    },
    {
      "anonymous": false,
      "inputs": [
        {
          "indexed": true,
          "internalType": "string",
          "name": "batchId",
          "type": "string"
        },
        {
          "indexed": false,
          "internalType": "enum Medichain.BatchStatus",
          "name": "status",
          "type": "uint8"
        },
        {
          "indexed": false,
          "internalType": "string",
          "name": "location",
          "type": "string"
        }
      ],
      "name": "StatusUpdated",
      "type": "event"
    },
    {
      "inputs": [
        {
          "internalType": "uint256",
          "name": "",
          "type": "uint256"
        }
      ],
      "name": "allMedicineSkus",
      "outputs": [
        {
          "internalType": "string",
          "name": "",
          "type": "string"
        }
      ],
      "stateMutability": "view",
      "type": "function"
    },
    {
      "inputs": [
        {
          "internalType": "address",
          "name": "",
          "type": "address"
        }
      ],
      "name": "authorizedDoctors",
      "outputs": [
        {
          "internalType": "bool",
          "name": "",
          "type": "bool"
        }
      ],
      "stateMutability": "view",
      "type": "function"
    },
    {
      "inputs": [
        {
          "internalType": "address",
          "name": "",
          "type": "address"
        }
      ],
      "name": "authorizedManufacturers",
      "outputs": [
        {
          "internalType": "bool",
          "name": "",
          "type": "bool"
        }
      ],
      "stateMutability": "view",
      "type": "function"
    },
    {
      "inputs": [
        {
          "internalType": "address",
          "name": "",
          "type": "address"
        }
      ],
      "name": "authorizedPharmacies",
      "outputs": [
        {
          "internalType": "bool",
          "name": "",
          "type": "bool"
        }
      ],
      "stateMutability": "view",
      "type": "function"
    },
    {
      "inputs": [
        {
          "internalType": "string",
          "name": "",
          "type": "string"
        },
        {
          "internalType": "uint256",
          "name": "",
          "type": "uint256"
        }
      ],
      "name": "batchHistory",
      "outputs": [
        {
          "internalType": "enum Medichain.BatchStatus",
          "name": "status",
          "type": "uint8"
        },
        {
          "internalType": "string",
          "name": "title",
          "type": "string"
        },
        {
          "internalType": "string",
          "name": "description",
          "type": "string"
        },
        {
          "internalType": "string",
          "name": "location",
          "type": "string"
        },
        {
          "internalType": "uint256",
          "name": "timestamp",
          "type": "uint256"
        },
        {
          "internalType": "address",
          "name": "handler",
          "type": "address"
        }
      ],
      "stateMutability": "view",
      "type": "function"
    },
    {
      "inputs": [
        {
          "internalType": "string",
          "name": "",
          "type": "string"
        }
      ],
      "name": "batches",
      "outputs": [
        {
          "internalType": "string",
          "name": "batchId",
          "type": "string"
        },
        {
          "internalType": "string",
          "name": "medicineSku",
          "type": "string"
        },
        {
          "internalType": "uint256",
          "name": "quantity",
          "type": "uint256"
        },
        {
          "internalType": "uint256",
          "name": "mfgDate",
          "type": "uint256"
        },
        {
          "internalType": "uint256",
          "name": "expiryDate",
          "type": "uint256"
        },
        {
          "internalType": "address",
          "name": "currentOwner",
          "type": "address"
        },
        {
          "internalType": "enum Medichain.BatchStatus",
          "name": "status",
          "type": "uint8"
        },
        {
          "internalType": "bool",
          "name": "exists",
          "type": "bool"
        }
      ],
      "stateMutability": "view",
      "type": "function"
    },
    {
      "inputs": [
        {
          "internalType": "string",
          "name": "_batchId",
          "type": "string"
        },
        {
          "internalType": "string",
          "name": "_medicineSku",
          "type": "string"
        },
        {
          "internalType": "uint256",
          "name": "_quantity",
          "type": "uint256"
        },
        {
          "internalType": "uint256",
          "name": "_expiryDate",
          "type": "uint256"
        },
        {
          "internalType": "string",
          "name": "_location",
          "type": "string"
        }
      ],
      "name": "createBatch",
      "outputs": [],
      "stateMutability": "nonpayable",
      "type": "function"
    },
    {
      "inputs": [],
      "name": "getAllMedicines",
      "outputs": [
        {
          "components": [
            {
              "internalType": "string",
              "name": "name",
              "type": "string"
            },
            {
              "internalType": "string",
              "name": "sku",
              "type": "string"
            },
            {
              "internalType": "string",
              "name": "category",
              "type": "string"
            },
            {
              "internalType": "string",
              "name": "dosage",
              "type": "string"
            },
            {
              "internalType": "string",
              "name": "manufacturerName",
              "type": "string"
            },
            {
              "internalType": "string",
              "name": "activeIngredients",
              "type": "string"
            },
            {
              "internalType": "bool",
              "name": "exists",
              "type": "bool"
            }
          ],
          "internalType": "struct Medichain.Medicine[]",
          "name": "",
          "type": "tuple[]"
        }
      ],
      "stateMutability": "view",
      "type": "function"
    },
    {
      "inputs": [
        {
          "internalType": "string",
          "name": "_batchId",
          "type": "string"
        }
      ],
      "name": "getBatchHistory",
      "outputs": [
        {
          "components": [
            {
              "internalType": "enum Medichain.BatchStatus",
              "name": "status",
              "type": "uint8"
            },
            {
              "internalType": "string",
              "name": "title",
              "type": "string"
            },
            {
              "internalType": "string",
              "name": "description",
              "type": "string"
            },
            {
              "internalType": "string",
              "name": "location",
              "type": "string"
            },
            {
              "internalType": "uint256",
              "name": "timestamp",
              "type": "uint256"
            },
            {
              "internalType": "address",
              "name": "handler",
              "type": "address"
            }
          ],
          "internalType": "struct Medichain.TrackingEvent[]",
          "name": "",
          "type": "tuple[]"
        }
      ],
      "stateMutability": "view",
      "type": "function"
    },
    {
      "inputs": [
        {
          "internalType": "address",
          "name": "_owner",
          "type": "address"
        }
      ],
      "name": "getMyInventory",
      "outputs": [
        {
          "components": [
            {
              "internalType": "string",
              "name": "batchId",
              "type": "string"
            },
            {
              "internalType": "string",
              "name": "medicineSku",
              "type": "string"
            },
            {
              "internalType": "uint256",
              "name": "quantity",
              "type": "uint256"
            },
            {
              "internalType": "uint256",
              "name": "mfgDate",
              "type": "uint256"
            },
            {
              "internalType": "uint256",
              "name": "expiryDate",
              "type": "uint256"
            },
            {
              "internalType": "address",
              "name": "currentOwner",
              "type": "address"
            },
            {
              "internalType": "enum Medichain.BatchStatus",
              "name": "status",
              "type": "uint8"
            },
            {
              "internalType": "bool",
              "name": "exists",
              "type": "bool"
            }
          ],
          "internalType": "struct Medichain.Batch[]",
          "name": "",
          "type": "tuple[]"
        }
      ],
      "stateMutability": "view",
      "type": "function"
    },
    {
      "inputs": [
        {
          "internalType": "string",
          "name": "",
          "type": "string"
        }
      ],
      "name": "medicines",
      "outputs": [
        {
          "internalType": "string",
          "name": "name",
          "type": "string"
        },
        {
          "internalType": "string",
          "name": "sku",
          "type": "string"
        },
        {
          "internalType": "string",
          "name": "category",
          "type": "string"
        },
        {
          "internalType": "string",
          "name": "dosage",
          "type": "string"
        },
        {
          "internalType": "string",
          "name": "manufacturerName",
          "type": "string"
        },
        {
          "internalType": "string",
          "name": "activeIngredients",
          "type": "string"
        },
        {
          "internalType": "bool",
          "name": "exists",
          "type": "bool"
        }
      ],
      "stateMutability": "view",
      "type": "function"
    },
    {
      "inputs": [],
      "name": "owner",
      "outputs": [
        {
          "internalType": "address",
          "name": "",
          "type": "address"
        }
      ],
      "stateMutability": "view",
      "type": "function"
    },
    {
      "inputs": [
        {
          "internalType": "address",
          "name": "",
          "type": "address"
        },
        {
          "internalType": "uint256",
          "name": "",
          "type": "uint256"
        }
      ],
      "name": "ownerInventory",
      "outputs": [
        {
          "internalType": "string",
          "name": "",
          "type": "string"
        }
      ],
      "stateMutability": "view",
      "type": "function"
    },
    {
      "inputs": [
        {
          "internalType": "string",
          "name": "_name",
          "type": "string"
        },
        {
          "internalType": "string",
          "name": "_sku",
          "type": "string"
        },
        {
          "internalType": "string",
          "name": "_category",
          "type": "string"
        },
        {
          "internalType": "string",
          "name": "_dosage",
          "type": "string"
        },
        {
          "internalType": "string",
          "name": "_manufacturerName",
          "type": "string"
        },
        {
          "internalType": "string",
          "name": "_activeIngredients",
          "type": "string"
        }
      ],
      "name": "registerMedicine",
      "outputs": [],
      "stateMutability": "nonpayable",
      "type": "function"
    },
    {
      "inputs": [],
      "name": "renounceOwnership",
      "outputs": [],
      "stateMutability": "nonpayable",
      "type": "function"
    },
    {
      "inputs": [
        {
          "internalType": "address",
          "name": "_addr",
          "type": "address"
        },
        {
          "internalType": "bool",
          "name": "_status",
          "type": "bool"
        }
      ],
      "name": "setDoctor",
      "outputs": [],
      "stateMutability": "nonpayable",
      "type": "function"
    },
    {
      "inputs": [
        {
          "internalType": "address",
          "name": "_addr",
          "type": "address"
        },
        {
          "internalType": "bool",
          "name": "_status",
          "type": "bool"
        }
      ],
      "name": "setManufacturer",
      "outputs": [],
      "stateMutability": "nonpayable",
      "type": "function"
    },
    {
      "inputs": [
        {
          "internalType": "address",
          "name": "_addr",
          "type": "address"
        },
        {
          "internalType": "bool",
          "name": "_status",
          "type": "bool"
        }
      ],
      "name": "setPharmacy",
      "outputs": [],
      "stateMutability": "nonpayable",
      "type": "function"
    },
    {
      "inputs": [
        {
          "internalType": "string",
          "name": "_batchId",
          "type": "string"
        },
        {
          "internalType": "address",
          "name": "_to",
          "type": "address"
        },
        {
          "internalType": "string",
          "name": "_location",
          "type": "string"
        },
        {
          "internalType": "string",
          "name": "_transferTitle",
          "type": "string"
        },
        {
          "internalType": "string",
          "name": "_transferDescription",
          "type": "string"
        },
        {
          "internalType": "enum Medichain.BatchStatus",
          "name": "_newStatus",
          "type": "uint8"
        }
      ],
      "name": "transferBatch",
      "outputs": [],
      "stateMutability": "nonpayable",
      "type": "function"
    },
    {
      "inputs": [
        {
          "internalType": "address",
          "name": "newOwner",
          "type": "address"
        }
      ],
      "name": "transferOwnership",
      "outputs": [],
      "stateMutability": "nonpayable",
      "type": "function"
    }
  ],
  "bytecode": "0x60806040523480156200001157600080fd5b50604051620048d0380380620048d08339818101604052810190620000379190620001fb565b80600073ffffffffffffffffffffffffffffffffffffffff168173ffffffffffffffffffffffffffffffffffffffff1603620000ad5760006040517f1e4fbdf7000000000000000000000000000000000000000000000000000000008152600401620000a491906200023e565b60405180910390fd5b620000be81620000cd60201b60201c565b5060018081905550506200025b565b60008060009054906101000a900473ffffffffffffffffffffffffffffffffffffffff169050816000806101000a81548173ffffffffffffffffffffffffffffffffffffffff021916908373ffffffffffffffffffffffffffffffffffffffff1602179055508173ffffffffffffffffffffffffffffffffffffffff168173ffffffffffffffffffffffffffffffffffffffff167f8be0079c531659141344cd1fd0a4f28419497f9722a3daafe3b4186f6b6457e060405160405180910390a35050565b600080fd5b600073ffffffffffffffffffffffffffffffffffffffff82169050919050565b6000620001c38262000196565b9050919050565b620001d581620001b6565b8114620001e157600080fd5b50565b600081519050620001f581620001ca565b92915050565b60006020828403121562000214576200021362000191565b5b60006200022484828501620001e4565b91505092915050565b6200023881620001b6565b82525050565b60006020820190506200025560008301846200022d565b92915050565b614665806200026b6000396000f3fe608060405234801561001057600080fd5b506004361061012c5760003560e01c80637ef1446a116100ad578063b0293a2e11610071578063b0293a2e1461038d578063d11c4e6b146103a9578063d97c6df1146103c5578063e2b2ccab146103e1578063f2fde38b146104115761012c565b80637ef1446a146102b75780638da5cb5b146102ee5780639b4bc9271461030c578063a2217be314610341578063a252d8a71461035d5761012c565b806329300d59116100f457806329300d59146102275780632d3975f0146102435780632dea85e51461027357806368f2b1d21461028f578063715018a6146102ad5761012c565b8063028324f8146101315780630489962d146101615780631f4baa611461019157806321b9da99146101c157806324b04245146101f7575b600080fd5b61014b60048036038101906101469190612d95565b61042d565b6040516101589190612e65565b60405180910390f35b61017b60048036038101906101769190612e87565b6104e6565b6040516101889190612e65565b60405180910390f35b6101ab60048036038101906101a69190612eb4565b610592565b6040516101b89190612efc565b60405180910390f35b6101db60048036038101906101d6919061304c565b6105b2565b6040516101ee9796959493929190613095565b60405180910390f35b610211600480360381019061020c9190612eb4565b610947565b60405161021e9190612efc565b60405180910390f35b610241600480360381019061023c919061312e565b610967565b005b61025d60048036038101906102589190612eb4565b610d61565b60405161026a9190612efc565b60405180910390f35b61028d60048036038101906102889190613229565b610d81565b005b610297610de4565b6040516102a49190613443565b60405180910390f35b6102b5611259565b005b6102d160048036038101906102cc919061304c565b61126d565b6040516102e59897969594939291906134fa565b60405180910390f35b6102f6611415565b6040516103039190613586565b60405180910390f35b610326600480360381019061032191906135a1565b61143e565b604051610338969594939291906135fd565b60405180910390f35b61035b60048036038101906103569190613698565b611672565b005b6103776004803603810190610372919061304c565b61195b565b604051610384919061391b565b60405180910390f35b6103a760048036038101906103a2919061393d565b611c29565b005b6103c360048036038101906103be9190613229565b611eee565b005b6103df60048036038101906103da9190613229565b611f51565b005b6103fb60048036038101906103f69190612eb4565b611fb4565b6040516104089190613beb565b60405180910390f35b61042b60048036038101906104269190612eb4565b61239c565b005b6006602052816000526040600020818154811061044957600080fd5b9060005260206000200160009150915050805461046590613c3c565b80601f016020809104026020016040519081016040528092919081815260200182805461049190613c3c565b80156104de5780601f106104b3576101008083540402835291602001916104de565b820191906000526020600020905b8154815290600101906020018083116104c157829003601f168201915b505050505081565b600381815481106104f657600080fd5b90600052602060002001600091509050805461051190613c3c565b80601f016020809104026020016040519081016040528092919081815260200182805461053d90613c3c565b801561058a5780601f1061055f5761010080835404028352916020019161058a565b820191906000526020600020905b81548152906001019060200180831161056d57829003601f168201915b505050505081565b600a6020528060005260406000206000915054906101000a900460ff1681565b6002818051602081018201805184825260208301602085012081835280955050505050506000915090508060000180546105eb90613c3c565b80601f016020809104026020016040519081016040528092919081815260200182805461061790613c3c565b80156106645780601f1061063957610100808354040283529160200191610664565b820191906000526020600020905b81548152906001019060200180831161064757829003601f168201915b50505050509080600101805461067990613c3c565b80601f01602080910402602001604051908101604052809291908181526020018280546106a590613c3c565b80156106f25780601f106106c7576101008083540402835291602001916106f2565b820191906000526020600020905b8154815290600101906020018083116106d557829003601f168201915b50505050509080600201805461070790613c3c565b80601f016020809104026020016040519081016040528092919081815260200182805461073390613c3c565b80156107805780601f1061075557610100808354040283529160200191610780565b820191906000526020600020905b81548152906001019060200180831161076357829003601f168201915b50505050509080600301805461079590613c3c565b80601f01602080910402602001604051908101604052809291908181526020018280546107c190613c3c565b801561080e5780601f106107e35761010080835404028352916020019161080e565b820191906000526020600020905b8154815290600101906020018083116107f157829003601f168201915b50505050509080600401805461082390613c3c565b80601f016020809104026020016040519081016040528092919081815260200182805461084f90613c3c565b801561089c5780601f106108715761010080835404028352916020019161089c565b820191906000526020600020905b81548152906001019060200180831161087f57829003601f168201915b5050505050908060050180546108b190613c3c565b80601f01602080910402602001604051908101604052809291908181526020018280546108dd90613c3c565b801561092a5780601f106108ff5761010080835404028352916020019161092a565b820191906000526020600020905b81548152906001019060200180831161090d57829003601f168201915b5050505050908060060160009054906101000a900460ff16905087565b60086020528060005260406000206000915054906101000a900460ff1681565b600860003373ffffffffffffffffffffffffffffffffffffffff1673ffffffffffffffffffffffffffffffffffffffff16815260200190815260200160002060009054906101000a900460ff16806109f157503373ffffffffffffffffffffffffffffffffffffffff166109d9611415565b73ffffffffffffffffffffffffffffffffffffffff16145b610a30576040517f08c379a0000000000000000000000000000000000000000000000000000000008152600401610a2790613cb9565b60405180910390fd5b600284604051610a409190613d15565b908152602001604051809103902060060160009054906101000a900460ff16610a9e576040517f08c379a0000000000000000000000000000000000000000000000000000000008152600401610a9590613d78565b60405180910390fd5b600485604051610aae9190613d15565b908152602001604051809103902060050160159054906101000a900460ff1615610b0d576040517f08c379a0000000000000000000000000000000000000000000000000000000008152600401610b0490613de4565b60405180910390fd5b60006040518061010001604052808781526020018681526020018581526020014281526020018481526020013373ffffffffffffffffffffffffffffffffffffffff16815260200160006004811115610b6957610b68613483565b5b815260200160011515815250905080600487604051610b889190613d15565b90815260200160405180910390206000820151816000019081610bab9190613fb0565b506020820151816001019081610bc19190613fb0565b5060408201518160020155606082015181600301556080820151816004015560a08201518160050160006101000a81548173ffffffffffffffffffffffffffffffffffffffff021916908373ffffffffffffffffffffffffffffffffffffffff16021790555060c08201518160050160146101000a81548160ff02191690836004811115610c5257610c51613483565b5b021790555060e08201518160050160156101000a81548160ff021916908315150217905550905050610c843387612422565b610cdf8660006040518060400160405280601681526020017f4d616e75666163747572696e6720436f6d706c657465000000000000000000008152506040518060600160405280602b8152602001614605602b913986612546565b3373ffffffffffffffffffffffffffffffffffffffff1685604051610d049190613d15565b604051809103902087604051610d1a9190613d15565b60405180910390207fd8045a119a7c2df6cea5c487e90f857abb1b84a5a356331229d0020ce9debc6287604051610d519190614082565b60405180910390a4505050505050565b60096020528060005260406000206000915054906101000a900460ff1681565b610d89612703565b80600860008473ffffffffffffffffffffffffffffffffffffffff1673ffffffffffffffffffffffffffffffffffffffff16815260200190815260200160002060006101000a81548160ff0219169083151502179055505050565b6060600060038054905067ffffffffffffffff811115610e0757610e06612f21565b5b604051908082528060200260200182016040528015610e4057816020015b610e2d612be2565b815260200190600190039081610e255790505b50905060005b60038054905081101561125157600260038281548110610e6957610e6861409d565b5b90600052602060002001604051610e80919061414f565b90815260200160405180910390206040518060e0016040529081600082018054610ea990613c3c565b80601f0160208091040260200160405190810160405280929190818152602001828054610ed590613c3c565b8015610f225780601f10610ef757610100808354040283529160200191610f22565b820191906000526020600020905b815481529060010190602001808311610f0557829003601f168201915b50505050508152602001600182018054610f3b90613c3c565b80601f0160208091040260200160405190810160405280929190818152602001828054610f6790613c3c565b8015610fb45780601f10610f8957610100808354040283529160200191610fb4565b820191906000526020600020905b815481529060010190602001808311610f9757829003601f168201915b50505050508152602001600282018054610fcd90613c3c565b80601f0160208091040260200160405190810160405280929190818152602001828054610ff990613c3c565b80156110465780601f1061101b57610100808354040283529160200191611046565b820191906000526020600020905b81548152906001019060200180831161102957829003601f168201915b5050505050815260200160038201805461105f90613c3c565b80601f016020809104026020016040519081016040528092919081815260200182805461108b90613c3c565b80156110d85780601f106110ad576101008083540402835291602001916110d8565b820191906000526020600020905b8154815290600101906020018083116110bb57829003601f168201915b505050505081526020016004820180546110f190613c3c565b80601f016020809104026020016040519081016040528092919081815260200182805461111d90613c3c565b801561116a5780601f1061113f5761010080835404028352916020019161116a565b820191906000526020600020905b81548152906001019060200180831161114d57829003601f168201915b5050505050815260200160058201805461118390613c3c565b80601f01602080910402602001604051908101604052809291908181526020018280546111af90613c3c565b80156111fc5780601f106111d1576101008083540402835291602001916111fc565b820191906000526020600020905b8154815290600101906020018083116111df57829003601f168201915b505050505081526020016006820160009054906101000a900460ff1615151515815250508282815181106112335761123261409d565b5b6020026020010181905250808061124990614195565b915050610e46565b508091505090565b611261612703565b61126b600061278a565b565b6004818051602081018201805184825260208301602085012081835280955050505050506000915090508060000180546112a690613c3c565b80601f01602080910402602001604051908101604052809291908181526020018280546112d290613c3c565b801561131f5780601f106112f45761010080835404028352916020019161131f565b820191906000526020600020905b81548152906001019060200180831161130257829003601f168201915b50505050509080600101805461133490613c3c565b80601f016020809104026020016040519081016040528092919081815260200182805461136090613c3c565b80156113ad5780601f10611382576101008083540402835291602001916113ad565b820191906000526020600020905b81548152906001019060200180831161139057829003601f168201915b5050505050908060020154908060030154908060040154908060050160009054906101000a900473ffffffffffffffffffffffffffffffffffffffff16908060050160149054906101000a900460ff16908060050160159054906101000a900460ff16905088565b60008060009054906101000a900473ffffffffffffffffffffffffffffffffffffffff16905090565b600582805160208101820180518482526020830160208501208183528095505050505050818154811061147057600080fd5b9060005260206000209060060201600091509150508060000160009054906101000a900460ff16908060010180546114a790613c3c565b80601f01602080910402602001604051908101604052809291908181526020018280546114d390613c3c565b80156115205780601f106114f557610100808354040283529160200191611520565b820191906000526020600020905b81548152906001019060200180831161150357829003601f168201915b50505050509080600201805461153590613c3c565b80601f016020809104026020016040519081016040528092919081815260200182805461156190613c3c565b80156115ae5780601f10611583576101008083540402835291602001916115ae565b820191906000526020600020905b81548152906001019060200180831161159157829003601f168201915b5050505050908060030180546115c390613c3c565b80601f01602080910402602001604051908101604052809291908181526020018280546115ef90613c3c565b801561163c5780601f106116115761010080835404028352916020019161163c565b820191906000526020600020905b81548152906001019060200180831161161f57829003601f168201915b5050505050908060040154908060050160009054906101000a900473ffffffffffffffffffffffffffffffffffffffff16905086565b61167a61284e565b60048660405161168a9190613d15565b908152602001604051809103902060050160159054906101000a900460ff166116e8576040517f08c379a00000000000000000000000000000000000000000000000000000000081526004016116df90614229565b60405180910390fd5b3373ffffffffffffffffffffffffffffffffffffffff1660048760405161170f9190613d15565b908152602001604051809103902060050160009054906101000a900473ffffffffffffffffffffffffffffffffffffffff1673ffffffffffffffffffffffffffffffffffffffff1614611797576040517f08c379a000000000000000000000000000000000000000000000000000000000815260040161178e90614295565b60405180910390fd5b600073ffffffffffffffffffffffffffffffffffffffff168573ffffffffffffffffffffffffffffffffffffffff1603611806576040517f08c379a00000000000000000000000000000000000000000000000000000000081526004016117fd90614301565b60405180910390fd5b6118103387612894565b846004876040516118219190613d15565b908152602001604051809103902060050160006101000a81548173ffffffffffffffffffffffffffffffffffffffff021916908373ffffffffffffffffffffffffffffffffffffffff160217905550806004876040516118819190613d15565b908152602001604051809103902060050160146101000a81548160ff021916908360048111156118b4576118b3613483565b5b02179055506118c38587612422565b6118d08682858588612546565b8473ffffffffffffffffffffffffffffffffffffffff163373ffffffffffffffffffffffffffffffffffffffff168760405161190c9190613d15565b60405180910390207fb1edaa5350293e3fef06e7307aa5a5b90b82ff163f359217f939982b1cf74376846040516119439190614321565b60405180910390a4611953612bd1565b505050505050565b606060058260405161196d9190613d15565b9081526020016040518091039020805480602002602001604051908101604052809291908181526020016000905b82821015611c1e57838290600052602060002090600602016040518060c00160405290816000820160009054906101000a900460ff1660048111156119e3576119e2613483565b5b60048111156119f5576119f4613483565b5b8152602001600182018054611a0990613c3c565b80601f0160208091040260200160405190810160405280929190818152602001828054611a3590613c3c565b8015611a825780601f10611a5757610100808354040283529160200191611a82565b820191906000526020600020905b815481529060010190602001808311611a6557829003601f168201915b50505050508152602001600282018054611a9b90613c3c565b80601f0160208091040260200160405190810160405280929190818152602001828054611ac790613c3c565b8015611b145780601f10611ae957610100808354040283529160200191611b14565b820191906000526020600020905b815481529060010190602001808311611af757829003601f168201915b50505050508152602001600382018054611b2d90613c3c565b80601f0160208091040260200160405190810160405280929190818152602001828054611b5990613c3c565b8015611ba65780601f10611b7b57610100808354040283529160200191611ba6565b820191906000526020600020905b815481529060010190602001808311611b8957829003601f168201915b50505050508152602001600482015481526020016005820160009054906101000a900473ffffffffffffffffffffffffffffffffffffffff1673ffffffffffffffffffffffffffffffffffffffff1673ffffffffffffffffffffffffffffffffffffffff16815250508152602001906001019061199b565b505050509050919050565b600860003373ffffffffffffffffffffffffffffffffffffffff1673ffffffffffffffffffffffffffffffffffffffff16815260200190815260200160002060009054906101000a900460ff1680611cb357503373ffffffffffffffffffffffffffffffffffffffff16611c9b611415565b73ffffffffffffffffffffffffffffffffffffffff16145b611cf2576040517f08c379a0000000000000000000000000000000000000000000000000000000008152600401611ce990613cb9565b60405180910390fd5b600285604051611d029190613d15565b908152602001604051809103902060060160009054906101000a900460ff1615611d61576040517f08c379a0000000000000000000000000000000000000000000000000000000008152600401611d5890614388565b60405180910390fd5b60006040518060e0016040528088815260200187815260200186815260200185815260200184815260200183815260200160011515815250905080600287604051611dac9190613d15565b90815260200160405180910390206000820151816000019081611dcf9190613fb0565b506020820151816001019081611de59190613fb0565b506040820151816002019081611dfb9190613fb0565b506060820151816003019081611e119190613fb0565b506080820151816004019081611e279190613fb0565b5060a0820151816005019081611e3d9190613fb0565b5060c08201518160060160006101000a81548160ff021916908315150217905550905050600386908060018154018082558091505060019003906000526020600020016000909190919091509081611e959190613fb0565b5085604051611ea49190613d15565b60405180910390207f985608110f6b4ba45d05d112577e5c8a171fa870aca87400fdd2fdbe171ed7128885604051611edd9291906143a8565b60405180910390a250505050505050565b611ef6612703565b80600a60008473ffffffffffffffffffffffffffffffffffffffff1673ffffffffffffffffffffffffffffffffffffffff16815260200190815260200160002060006101000a81548160ff0219169083151502179055505050565b611f59612703565b80600960008473ffffffffffffffffffffffffffffffffffffffff1673ffffffffffffffffffffffffffffffffffffffff16815260200190815260200160002060006101000a81548160ff0219169083151502179055505050565b60606000600660008473ffffffffffffffffffffffffffffffffffffffff1673ffffffffffffffffffffffffffffffffffffffff168152602001908152602001600020805480602002602001604051908101604052809291908181526020016000905b828210156120c357838290600052602060002001805461203690613c3c565b80601f016020809104026020016040519081016040528092919081815260200182805461206290613c3c565b80156120af5780601f10612084576101008083540402835291602001916120af565b820191906000526020600020905b81548152906001019060200180831161209257829003601f168201915b505050505081526020019060010190612017565b5050505090506000815167ffffffffffffffff8111156120e6576120e5612f21565b5b60405190808252806020026020018201604052801561211f57816020015b61210c612c21565b8152602001906001900390816121045790505b50905060005b82518110156123915760048382815181106121435761214261409d565b5b60200260200101516040516121589190613d15565b90815260200160405180910390206040518061010001604052908160008201805461218290613c3c565b80601f01602080910402602001604051908101604052809291908181526020018280546121ae90613c3c565b80156121fb5780601f106121d0576101008083540402835291602001916121fb565b820191906000526020600020905b8154815290600101906020018083116121de57829003601f168201915b5050505050815260200160018201805461221490613c3c565b80601f016020809104026020016040519081016040528092919081815260200182805461224090613c3c565b801561228d5780601f106122625761010080835404028352916020019161228d565b820191906000526020600020905b81548152906001019060200180831161227057829003601f168201915b505050505081526020016002820154815260200160038201548152602001600482015481526020016005820160009054906101000a900473ffffffffffffffffffffffffffffffffffffffff1673ffffffffffffffffffffffffffffffffffffffff1673ffffffffffffffffffffffffffffffffffffffff1681526020016005820160149054906101000a900460ff16600481111561232f5761232e613483565b5b600481111561234157612340613483565b5b81526020016005820160159054906101000a900460ff1615151515815250508282815181106123735761237261409d565b5b6020026020010181905250808061238990614195565b915050612125565b508092505050919050565b6123a4612703565b600073ffffffffffffffffffffffffffffffffffffffff168173ffffffffffffffffffffffffffffffffffffffff16036124165760006040517f1e4fbdf700000000000000000000000000000000000000000000000000000000815260040161240d9190613586565b60405180910390fd5b61241f8161278a565b50565b600660008373ffffffffffffffffffffffffffffffffffffffff1673ffffffffffffffffffffffffffffffffffffffff168152602001908152602001600020819080600181540180825580915050600190039060005260206000200160009091909190915090816124939190613fb0565b506001600660008473ffffffffffffffffffffffffffffffffffffffff1673ffffffffffffffffffffffffffffffffffffffff168152602001908152602001600020805490506124e391906143df565b600760008473ffffffffffffffffffffffffffffffffffffffff1673ffffffffffffffffffffffffffffffffffffffff168152602001908152602001600020826040516125309190613d15565b9081526020016040518091039020819055505050565b60006040518060c0016040528086600481111561256657612565613483565b5b81526020018581526020018481526020018381526020014281526020013373ffffffffffffffffffffffffffffffffffffffff1681525090506005866040516125af9190613d15565b908152602001604051809103902081908060018154018082558091505060019003906000526020600020906006020160009091909190915060008201518160000160006101000a81548160ff0219169083600481111561261257612611613483565b5b0217905550602082015181600101908161262c9190613fb0565b5060408201518160020190816126429190613fb0565b5060608201518160030190816126589190613fb0565b506080820151816004015560a08201518160050160006101000a81548173ffffffffffffffffffffffffffffffffffffffff021916908373ffffffffffffffffffffffffffffffffffffffff1602179055505050856040516126ba9190613d15565b60405180910390207f643aada18a628da4f888e6b27e85e5fa660bf52bf3de941ca3503cf2b171a81a86846040516126f3929190614413565b60405180910390a2505050505050565b61270b612bda565b73ffffffffffffffffffffffffffffffffffffffff16612729611415565b73ffffffffffffffffffffffffffffffffffffffff16146127885761274c612bda565b6040517f118cdaa700000000000000000000000000000000000000000000000000000000815260040161277f9190613586565b60405180910390fd5b565b60008060009054906101000a900473ffffffffffffffffffffffffffffffffffffffff169050816000806101000a81548173ffffffffffffffffffffffffffffffffffffffff021916908373ffffffffffffffffffffffffffffffffffffffff1602179055508173ffffffffffffffffffffffffffffffffffffffff168173ffffffffffffffffffffffffffffffffffffffff167f8be0079c531659141344cd1fd0a4f28419497f9722a3daafe3b4186f6b6457e060405160405180910390a35050565b60026001540361288a576040517f3ee5aeb500000000000000000000000000000000000000000000000000000000815260040160405180910390fd5b6002600181905550565b6000600660008473ffffffffffffffffffffffffffffffffffffffff1673ffffffffffffffffffffffffffffffffffffffff16815260200190815260200160002090506000600760008573ffffffffffffffffffffffffffffffffffffffff1673ffffffffffffffffffffffffffffffffffffffff168152602001908152602001600020836040516129269190613d15565b90815260200160405180910390205490508180549050811061297d576040517f08c379a00000000000000000000000000000000000000000000000000000000081526004016129749061448f565b60405180910390fd5b82805190602001208282815481106129985761299761409d565b5b906000526020600020016040516129af9190614552565b6040518091039020146129f7576040517f08c379a00000000000000000000000000000000000000000000000000000000081526004016129ee906145b5565b60405180910390fd5b60008260018480549050612a0b91906143df565b81548110612a1c57612a1b61409d565b5b906000526020600020018054612a3190613c3c565b80601f0160208091040260200160405190810160405280929190818152602001828054612a5d90613c3c565b8015612aaa5780601f10612a7f57610100808354040283529160200191612aaa565b820191906000526020600020905b815481529060010190602001808311612a8d57829003601f168201915b5050505050905080838381548110612ac557612ac461409d565b5b906000526020600020019081612adb9190613fb0565b5081600760008773ffffffffffffffffffffffffffffffffffffffff1673ffffffffffffffffffffffffffffffffffffffff16815260200190815260200160002082604051612b2a9190613d15565b90815260200160405180910390208190555082805480612b4d57612b4c6145d5565b5b600190038181906000526020600020016000612b699190612c90565b9055600760008673ffffffffffffffffffffffffffffffffffffffff1673ffffffffffffffffffffffffffffffffffffffff16815260200190815260200160002084604051612bb89190613d15565b9081526020016040518091039020600090555050505050565b60018081905550565b600033905090565b6040518060e001604052806060815260200160608152602001606081526020016060815260200160608152602001606081526020016000151581525090565b6040518061010001604052806060815260200160608152602001600081526020016000815260200160008152602001600073ffffffffffffffffffffffffffffffffffffffff16815260200160006004811115612c8157612c80613483565b5b81526020016000151581525090565b508054612c9c90613c3c565b6000825580601f10612cae5750612ccd565b601f016020900490600052602060002090810190612ccc9190612cd0565b5b50565b5b80821115612ce9576000816000905550600101612cd1565b5090565b6000604051905090565b600080fd5b600080fd5b600073ffffffffffffffffffffffffffffffffffffffff82169050919050565b6000612d2c82612d01565b9050919050565b612d3c81612d21565b8114612d4757600080fd5b50565b600081359050612d5981612d33565b92915050565b6000819050919050565b612d7281612d5f565b8114612d7d57600080fd5b50565b600081359050612d8f81612d69565b92915050565b60008060408385031215612dac57612dab612cf7565b5b6000612dba85828601612d4a565b9250506020612dcb85828601612d80565b9150509250929050565b600081519050919050565b600082825260208201905092915050565b60005b83811015612e0f578082015181840152602081019050612df4565b60008484015250505050565b6000601f19601f8301169050919050565b6000612e3782612dd5565b612e418185612de0565b9350612e51818560208601612df1565b612e5a81612e1b565b840191505092915050565b60006020820190508181036000830152612e7f8184612e2c565b905092915050565b600060208284031215612e9d57612e9c612cf7565b5b6000612eab84828501612d80565b91505092915050565b600060208284031215612eca57612ec9612cf7565b5b6000612ed884828501612d4a565b91505092915050565b60008115159050919050565b612ef681612ee1565b82525050565b6000602082019050612f116000830184612eed565b92915050565b600080fd5b600080fd5b7f4e487b7100000000000000000000000000000000000000000000000000000000600052604160045260246000fd5b612f5982612e1b565b810181811067ffffffffffffffff82111715612f7857612f77612f21565b5b80604052505050565b6000612f8b612ced565b9050612f978282612f50565b919050565b600067ffffffffffffffff821115612fb757612fb6612f21565b5b612fc082612e1b565b9050602081019050919050565b82818337600083830152505050565b6000612fef612fea84612f9c565b612f81565b90508281526020810184848401111561300b5761300a612f1c565b5b613016848285612fcd565b509392505050565b600082601f83011261303357613032612f17565b5b8135613043848260208601612fdc565b91505092915050565b60006020828403121561306257613061612cf7565b5b600082013567ffffffffffffffff8111156130805761307f612cfc565b5b61308c8482850161301e565b91505092915050565b600060e08201905081810360008301526130af818a612e2c565b905081810360208301526130c38189612e2c565b905081810360408301526130d78188612e2c565b905081810360608301526130eb8187612e2c565b905081810360808301526130ff8186612e2c565b905081810360a08301526131138185612e2c565b905061312260c0830184612eed565b98975050505050505050565b600080600080600060a0868803121561314a57613149612cf7565b5b600086013567ffffffffffffffff81111561316857613167612cfc565b5b6131748882890161301e565b955050602086013567ffffffffffffffff81111561319557613194612cfc565b5b6131a18882890161301e565b94505060406131b288828901612d80565b93505060606131c388828901612d80565b925050608086013567ffffffffffffffff8111156131e4576131e3612cfc565b5b6131f08882890161301e565b9150509295509295909350565b61320681612ee1565b811461321157600080fd5b50565b600081359050613223816131fd565b92915050565b600080604083850312156132405761323f612cf7565b5b600061324e85828601612d4a565b925050602061325f85828601613214565b9150509250929050565b600081519050919050565b600082825260208201905092915050565b6000819050602082019050919050565b600082825260208201905092915050565b60006132b182612dd5565b6132bb8185613295565b93506132cb818560208601612df1565b6132d481612e1b565b840191505092915050565b6132e881612ee1565b82525050565b600060e083016000830151848203600086015261330b82826132a6565b9150506020830151848203602086015261332582826132a6565b9150506040830151848203604086015261333f82826132a6565b9150506060830151848203606086015261335982826132a6565b9150506080830151848203608086015261337382826132a6565b91505060a083015184820360a086015261338d82826132a6565b91505060c08301516133a260c08601826132df565b508091505092915050565b60006133b983836132ee565b905092915050565b6000602082019050919050565b60006133d982613269565b6133e38185613274565b9350836020820285016133f585613285565b8060005b85811015613431578484038952815161341285826133ad565b945061341d836133c1565b925060208a019950506001810190506133f9565b50829750879550505050505092915050565b6000602082019050818103600083015261345d81846133ce565b905092915050565b61346e81612d5f565b82525050565b61347d81612d21565b82525050565b7f4e487b7100000000000000000000000000000000000000000000000000000000600052602160045260246000fd5b600581106134c3576134c2613483565b5b50565b60008190506134d4826134b2565b919050565b60006134e4826134c6565b9050919050565b6134f4816134d9565b82525050565b6000610100820190508181036000830152613515818b612e2c565b90508181036020830152613529818a612e2c565b90506135386040830189613465565b6135456060830188613465565b6135526080830187613465565b61355f60a0830186613474565b61356c60c08301856134eb565b61357960e0830184612eed565b9998505050505050505050565b600060208201905061359b6000830184613474565b92915050565b600080604083850312156135b8576135b7612cf7565b5b600083013567ffffffffffffffff8111156135d6576135d5612cfc565b5b6135e28582860161301e565b92505060206135f385828601612d80565b9150509250929050565b600060c08201905061361260008301896134eb565b81810360208301526136248188612e2c565b905081810360408301526136388187612e2c565b9050818103606083015261364c8186612e2c565b905061365b6080830185613465565b61366860a0830184613474565b979650505050505050565b6005811061368057600080fd5b50565b60008135905061369281613673565b92915050565b60008060008060008060c087890312156136b5576136b4612cf7565b5b600087013567ffffffffffffffff8111156136d3576136d2612cfc565b5b6136df89828a0161301e565b96505060206136f089828a01612d4a565b955050604087013567ffffffffffffffff81111561371157613710612cfc565b5b61371d89828a0161301e565b945050606087013567ffffffffffffffff81111561373e5761373d612cfc565b5b61374a89828a0161301e565b935050608087013567ffffffffffffffff81111561376b5761376a612cfc565b5b61377789828a0161301e565b92505060a061378889828a01613683565b9150509295509295509295565b600081519050919050565b600082825260208201905092915050565b6000819050602082019050919050565b6137ca816134d9565b82525050565b6137d981612d5f565b82525050565b6137e881612d21565b82525050565b600060c08301600083015161380660008601826137c1565b506020830151848203602086015261381e82826132a6565b9150506040830151848203604086015261383882826132a6565b9150506060830151848203606086015261385282826132a6565b915050608083015161386760808601826137d0565b5060a083015161387a60a08601826137df565b508091505092915050565b600061389183836137ee565b905092915050565b6000602082019050919050565b60006138b182613795565b6138bb81856137a0565b9350836020820285016138cd856137b1565b8060005b8581101561390957848403895281516138ea8582613885565b94506138f583613899565b925060208a019950506001810190506138d1565b50829750879550505050505092915050565b6000602082019050818103600083015261393581846138a6565b905092915050565b60008060008060008060c0878903121561395a57613959612cf7565b5b600087013567ffffffffffffffff81111561397857613977612cfc565b5b61398489828a0161301e565b965050602087013567ffffffffffffffff8111156139a5576139a4612cfc565b5b6139b189828a0161301e565b955050604087013567ffffffffffffffff8111156139d2576139d1612cfc565b5b6139de89828a0161301e565b945050606087013567ffffffffffffffff8111156139ff576139fe612cfc565b5b613a0b89828a0161301e565b935050608087013567ffffffffffffffff811115613a2c57613a2b612cfc565b5b613a3889828a0161301e565b92505060a087013567ffffffffffffffff811115613a5957613a58612cfc565b5b613a6589828a0161301e565b9150509295509295509295565b600081519050919050565b600082825260208201905092915050565b6000819050602082019050919050565b6000610100830160008301518482036000860152613abc82826132a6565b91505060208301518482036020860152613ad682826132a6565b9150506040830151613aeb60408601826137d0565b506060830151613afe60608601826137d0565b506080830151613b1160808601826137d0565b5060a0830151613b2460a08601826137df565b5060c0830151613b3760c08601826137c1565b5060e0830151613b4a60e08601826132df565b508091505092915050565b6000613b618383613a9e565b905092915050565b6000602082019050919050565b6000613b8182613a72565b613b8b8185613a7d565b935083602082028501613b9d85613a8e565b8060005b85811015613bd95784840389528151613bba8582613b55565b9450613bc583613b69565b925060208a01995050600181019050613ba1565b50829750879550505050505092915050565b60006020820190508181036000830152613c058184613b76565b905092915050565b7f4e487b7100000000000000000000000000000000000000000000000000000000600052602260045260246000fd5b60006002820490506001821680613c5457607f821691505b602082108103613c6757613c66613c0d565b5b50919050565b7f43616c6c6572206973206e6f742061206d616e75666163747572657200000000600082015250565b6000613ca3601c83612de0565b9150613cae82613c6d565b602082019050919050565b60006020820190508181036000830152613cd281613c96565b9050919050565b600081905092915050565b6000613cef82612dd5565b613cf98185613cd9565b9350613d09818560208601612df1565b80840191505092915050565b6000613d218284613ce4565b915081905092915050565b7f4d65646963696e6520534b5520646f6573206e6f742065786973740000000000600082015250565b6000613d62601b83612de0565b9150613d6d82613d2c565b602082019050919050565b60006020820190508181036000830152613d9181613d55565b9050919050565b7f426174636820494420616c726561647920657869737473000000000000000000600082015250565b6000613dce601783612de0565b9150613dd982613d98565b602082019050919050565b60006020820190508181036000830152613dfd81613dc1565b9050919050565b60008190508160005260206000209050919050565b60006020601f8301049050919050565b600082821b905092915050565b600060088302613e667fffffffffffffffffffffffffffffffffffffffffffffffffffffffffffffffff82613e29565b613e708683613e29565b95508019841693508086168417925050509392505050565b6000819050919050565b6000613ead613ea8613ea384612d5f565b613e88565b612d5f565b9050919050565b6000819050919050565b613ec783613e92565b613edb613ed382613eb4565b848454613e36565b825550505050565b600090565b613ef0613ee3565b613efb818484613ebe565b505050565b5b81811015613f1f57613f14600082613ee8565b600181019050613f01565b5050565b601f821115613f6457613f3581613e04565b613f3e84613e19565b81016020851015613f4d578190505b613f61613f5985613e19565b830182613f00565b50505b505050565b600082821c905092915050565b6000613f8760001984600802613f69565b1980831691505092915050565b6000613fa08383613f76565b9150826002028217905092915050565b613fb982612dd5565b67ffffffffffffffff811115613fd257613fd1612f21565b5b613fdc8254613c3c565b613fe7828285613f23565b600060209050601f83116001811461401a5760008415614008578287015190505b6140128582613f94565b86555061407a565b601f19841661402886613e04565b60005b828110156140505784890151825560018201915060208501945060208101905061402b565b8683101561406d5784890151614069601f891682613f76565b8355505b6001600288020188555050505b505050505050565b60006020820190506140976000830184613465565b92915050565b7f4e487b7100000000000000000000000000000000000000000000000000000000600052603260045260246000fd5b600081546140d981613c3c565b6140e38186613cd9565b945060018216600081146140fe576001811461411357614146565b60ff1983168652811515820286019350614146565b61411c85613e04565b60005b8381101561413e5781548189015260018201915060208101905061411f565b838801955050505b50505092915050565b600061415b82846140cc565b915081905092915050565b7f4e487b7100000000000000000000000000000000000000000000000000000000600052601160045260246000fd5b60006141a082612d5f565b91507fffffffffffffffffffffffffffffffffffffffffffffffffffffffffffffffff82036141d2576141d1614166565b5b600182019050919050565b7f426174636820646f6573206e6f74206578697374000000000000000000000000600082015250565b6000614213601483612de0565b915061421e826141dd565b602082019050919050565b6000602082019050818103600083015261424281614206565b9050919050565b7f596f7520646f206e6f74206f776e207468697320626174636800000000000000600082015250565b600061427f601983612de0565b915061428a82614249565b602082019050919050565b600060208201905081810360008301526142ae81614272565b9050919050565b7f43616e6e6f74207472616e7366657220746f207a65726f206164647265737300600082015250565b60006142eb601f83612de0565b91506142f6826142b5565b602082019050919050565b6000602082019050818103600083015261431a816142de565b9050919050565b600060208201905061433660008301846134eb565b92915050565b7f4d65646963696e6520534b5520616c7265616479206578697374730000000000600082015250565b6000614372601b83612de0565b915061437d8261433c565b602082019050919050565b600060208201905081810360008301526143a181614365565b9050919050565b600060408201905081810360008301526143c28185612e2c565b905081810360208301526143d68184612e2c565b90509392505050565b60006143ea82612d5f565b91506143f583612d5f565b925082820390508181111561440d5761440c614166565b5b92915050565b600060408201905061442860008301856134eb565b818103602083015261443a8184612e2c565b90509392505050565b7f496e76656e746f727920696e646578206f7574206f6620626f756e6473000000600082015250565b6000614479601d83612de0565b915061448482614443565b602082019050919050565b600060208201905081810360008301526144a88161446c565b9050919050565b600081905092915050565b60008190508160005260206000209050919050565b600081546144dc81613c3c565b6144e681866144af565b94506001821660008114614501576001811461451657614549565b60ff1983168652811515820286019350614549565b61451f856144ba565b60005b8381101561454157815481890152600182019150602081019050614522565b838801955050505b50505092915050565b600061455e82846144cf565b915081905092915050565b7f496e76656e746f7279206d69736d617463680000000000000000000000000000600082015250565b600061459f601283612de0565b91506145aa82614569565b602082019050919050565b600060208201905081810360008301526145ce81614592565b9050919050565b7f4e487b7100000000000000000000000000000000000000000000000000000000600052603160045260246000fdfe4261746368206372656174656420616e642072656769737465726564206f6e20626c6f636b636861696e2ea2646970667358221220e8faa4162127f3269445f3b7418b1a917c1ff6bd8ca5975a73abb79aaf7723c164736f6c63430008140033",
  "linkReferences": {},
  "deployedLinkReferences": {}
}